:060000000A128A110C280F
:10000800FE00030EF0000A08F1000A128A11D22F2E
:100018000A128A110F28FA01FB0183120313E8015F
:10002800E901EA01EB01EC01ED01EE01EF018316B4
:100038000313A001A10183010A128A117A2E8312E7
:10004800031329088039B3002908AE002E07B90028
:10005800A81F2F28302831283914390803193528C2
:1000680036284528390A031D3A283B2843280030FA
:10007800A9000030A8000030A7000030A600A8178B
:100088004D280030A9000030A8000030A70000303B
:10009800A6002D088039AE002E08B3062D08AE0044
:1000A8002E07B400AC1F59285A285B28341434088A
:1000B80003195F2860286F28340A031D64286528FF
:1000C8006D280030AD000030AC000030AB000030CF
:1000D800AA00AC1777280030AD000030AC00003023
:1000E800AB000030AA00340803197B287C2881283B
:1000F8003908031D802881288A280030A90000308B
:10010800A8000030A7000030A600672B2608F200E0
:100118002C080A128A155F270A128A11730883129B
:100128000313BF007208BE003E08AE00AF01B00165
:10013800B1013108B8003008B7002F08B6002E0802
:10014800B5003F08AE00AF01B001B1013108BD00F4
:100158003008BC002F08BB002E08BA002708F200A0
:100168002B080A128A155F270A128A11730883124C
:100178000313BF007208BE003E08AE00AF01B00115
:10018800B1012E08B5072F0803110318013E031902
:10019800CE28B607300803110318013E0319D528E5
:1001A800B707310803110318013E0319DC28B80703
:1001B8003F08AE00AF01B001B1012E08BA072F0801
:1001C80003110318013E0319EA28BB07300803117D
:1001D8000318013E0319F128BC073108031103185D
:1001E800013E0319F828BD072808F2002A080A1258
:1001F8008A155F270A128A11730883120313BF0036
:100208007208BE003E08AE00AF01B001B1012E0871
:10021800B5072F0803110318013E03191429B6075F
:10022800300803110318013E03191B29B7073108C9
:1002380003110318013E03192229B8073F08AE002D
:10024800AF01B001B1012E08BA072F080311031836
:10025800013E03193029BB07300803110318013E7A
:1002680003193729BC07310803110318013E031984
:100278003E29BD070830AE000310B50DB60DB70D09
:10028800B80DAE0B40292708F2002A080A128A1571
:100298005F270A128A11730883120313BF007208BA
:1002A800BE003E08AE003F08AF00B001B1012E0805
:1002B800B5072F0803110318013E03196429B6076F
:1002C800300803110318013E03196B29B7073108D9
:1002D80003110318013E03197229B8072608F20012
:1002E8002B080A128A155F270A128A1173088312CB
:1002F8000313BF007208BE003E08AE003F08AF00FF
:10030800B001B1012E08B5072F0803110318013EEB
:1003180003198F29B607300803110318013E031982
:100328009629B707310803110318013E03199D29BF
:10033800B8070830AE000310B50DB60DB70DB80DEF
:10034800AE0B9F292608F2002A080A128A155F2791
:100358000A128A11730883120313BF007208BE00C1
:100368003E08AE003F08AF00B001B1012E08B50746
:100378002F0803110318013E0319C329B6073008D3
:1003880003110318013E0319CA29B70731080311DD
:100398000318013E0319D129B8072708F2002C08D1
:1003A8000A128A155F270A128A1173088312031327
:1003B800BF007208BE003E08AE003F08AF00B001A3
:1003C800B1012E08BA072F0803110318013E0319BB
:1003D800EE29BB07300803110318013E0319F5295C
:1003E800BC07310803110318013E0319FC29BD0796
:1003F8002808F2002B080A128A155F270A128A11A8
:10040800730883120313BF007208BE003E08AE00D3
:100418003F08AF00B001B1012E08BA072F08031139
:100428000318013E0319192ABB07300803110318E2
:10043800013E0319202ABC07310803110318013EA5
:100448000319272ABD072808F2002C080A128A1562
:100458005F270A128A11730883120313BF007208F8
:10046800BE003E08AE003F08AF00B001B101083041
:100478000310AE0DAF0DB00DB10DFF3E031D3C2AAC
:100488002E08BA072F0803110318013E03194D2A35
:10049800BB07300803110318013E0319542ABC078F
:1004A800310803110318013E03195B2ABD073508FB
:1004B800AE003608AF003708B0003808B100183071
:1004C8000310B10CB00CAF0CAE0CFF3E031D642A38
:1004D8002E08BA072F0803110318013E0319752ABD
:1004E800BB07300803110318013E03197C2ABC0717
:1004F800310803110318013E0319832ABD07083088
:10050800AE000310B50DB60DB70DB80DAE0B852AAC
:1005180039083407AE00AF01AF0D2E08823EBE0089
:100528002F080318013EFF3EBF00B72A0130AE0076
:100538000310BA0DBB0DBC0DBD0DAE0B9C2AB81F28
:10054800A62AA72AA82A3A140130AE000310B50D2E
:10055800B60DB70DB80DAE0BAA2AFF30BE070318AB
:10056800BF0AFF30BF07BC1FBA2ABB2A9A2AB401A8
:10057800B81FBF2AC02ADC2AFF303505AE00FF307D
:100588003605AF00FF303705B0007F303805B100C1
:10059800310830042F042E040319D32AD42AD72A69
:1005A800B401B40ADC2A3A1CDA2ADB2ADC2AD42A67
:1005B80034080319E02AE12A122B0130BA07003067
:1005C80003180130BB07003003180130BC070030A6
:1005D80003180130BD073D1CF22AF32A122B3A08F2
:1005E800AE003B08AF003C08B0003D08B100013048
:1005F800B200310DB10CB00CAF0CAE0CB20BFD2A31
:100608003108BD003008BC002F08BB002E08BA0016
:100618000130BE070318BF0A0030BF073F08803A01
:10062800FF0080307F02031D1B2BFF303E02031C9E
:100638001E2B1F2B2A2B7F3083120313BD00803003
:10064800BC000030BB000030BA005B2B83120313E0
:100658003F08803AFF0080307F02031D352B0130B0
:100668003E020318382B392B452B00308312031315
:10067800BD000030BC000030BB000030BA00B30140
:100688005B2B831203133E08B900FF30BA05FF3015
:10069800BB057F30BC050030BD05391C542B552BDC
:1006A800562BBC173908AE0003102E0CBD003308BA
:1006B800AE002E08BD043D08A9003C08A8003B0870
:1006C800A7003A08A60008008312031343088039DC
:1006D800D0004308C8004807D200C21F742B752BEE
:1006E800762B5214520803197A2B7B2B8B2B520A28
:1006F800031D7F2B802B882B0030C3000030C200E5
:100708000030C1000030C000C217C301932B003075
:10071800C3000030C2000030C1000030C0004708EC
:100728008039D1005108500603199B2B9C2B9D2B17
:1007380050174708C8004807D100C61FA42BA52B8F
:10074800A62B511451080319AA2BAB2BBB2B510A0A
:10075800031DAF2BB02BB82B0030C7000030C600EC
:100768000030C5000030C400C617C701C32B0030D5
:10077800C7000030C6000030C5000030C400520871
:1007880051020318C82BC92BEF2B501FCC2BCD2B94
:10079800D12B8030C8004808D0065208D300510831
:1007A800D2005308D1004008D3004408C0005308C1
:1007B800C4004108D3004508C1005308C5004208D9
:1007C800D3004608C2005308C6004308D3004708B0
:1007D800C3005308C700D3015108C800C90149081C
:1007E800CB0052084802CA00031CCB034B08803ACE
:1007F800FF0080307F02031D032C1A304A02031CBD
:10080800062C072C3E2C8312031343084204410490
:100818004004031D102C122C0130132C0030D3007F
:100828000030C3000030C2000030C1000030C000FA
:100838005108D200462C531C222C232C2A2C530856
:10084800C8000310480C0138D3002C2C0310D30C1B
:10085800401C2F2C302C312CD3170130C800430DED
:10086800C30CC20CC10CC00CC80B332C0130C8001F
:100878004808D2078312031351085202031C452C5F
:10088800462C1F2C501B492C4A2C932C5208031D14
:100898004E2C4F2C582C0030C3000030C2000030C2
:1008A800C1000030C000BF2D4408C007450803112F
:1008B8000318013E0319612CC107460803110318E8
:1008C800013E0319682CC207470803110318013EAB
:1008D80003196F2CC307431C722C732C472D531C10
:1008E800762C772C7E2C5308C8000310480C01384E
:1008F800D300802C0310D30C401C832C842C852C13
:10090800D3170130C800430DC30CC20CC10CC00C76
:10091800C80B872C0130C8004808D207472D430868
:10092800803AFF004708803A7F02031DA52C46083D
:100938004202031DA52C45084102031DA52C4408AD
:1009480040020318A82CA92C012DFF30C800FF3045
:10095800C900FF30CA00FF30CB004408CC0045086E
:10096800CD004608CE004708CF004008CC02410819
:10097800031C410FC02CC12CCD024208031C420F9E
:10098800C62CC72CCE024308031C430FCC2CCD2CFD
:10099800CF024C08C8074D0803184D0FD42CD52C8E
:1009A800C9074E0803184E0FDA2CDB2CCA074F086C
:1009B80003184F0ACB074B08C3004A08C20049086E
:1009C800C1004808C0008030C8004808D006D309D4
:1009D800D30A5308031DF12CF22C0F2D0130C00748
:1009E800003003180130C107003003180130C20776
:1009F800003003180130C3070F2D4408C002450812
:100A0800031C450FC1024608031C460FC2024708D3
:100A1800031C470FC3024308420441044004031D5A
:100A2800162D172D432D5308031D1B2D1C2D432D4B
:100A38000030C3000030C2000030C1000030C000E8
:100A4800BF2D0130C8000310C00DC10DC20DC30D6C
:100A5800C80B272DD31F312D322D332D4014531C95
:100A6800362D372D3A2D0314D30D3C2D0310D30DFD
:100A780052080319402D412D432D0130D202C21FC7
:100A8800462D472D252DD101D31F4B2D4C2D5A2DE9
:100A980053087F390319512D522D552DD101D10AF3
:100AA8005A2D401C582D592D5A2D522D51080319D5
:100AB8005E2D5F2D932D0130C007003003180130E3
:100AC800C107003003180130C20700300318013095
:100AD800C307431C702D712D932D4008C800410891
:100AE800C9004208CA004308CB000130CC004B0DB6
:100AF800CB0CCA0CC90CC80CCC0B7B2D4B08C30003
:100B08004A08C2004908C1004808C000520A03192F
:100B18008E2D8F2D932D0130C8004808D207520A18
:100B28000319972D982D9D2D5208031D9C2D9D2D41
:100B3800AB2D0030C3000030C2000030C1000030CF
:100B4800C0005208031DA92DAA2DAB2DD001521C9F
:100B5800AE2DAF2DB12DC217B52D7F30C800480876
:100B6800C2055208C8000310480CC300D01FBD2D91
:100B7800BE2DBF2DC317080083120313A000200841
:100B88000319C72DC82DDC2DF51FCB2DCC2DDC2D41
:100B98007209A2007309A3007409A4007509A500CD
:100BA800A20A0319A30A0319A40A0319A50AE42D22
:100BB8007508A5007408A4007308A3007208A200B1
:100BC8007508740473047204031DEB2DEC2DF52DC8
:100BD8000030F5000030F4000030F3000030F2007F
:100BE800792E9630A100052E0130F6007608A1076F
:100BF80001300310A50CA40CA30CA20CFF3E031D8E
:100C0800FD2DFE302505031D0A2E0B2EF82D272E4F
:100C18000130F6007608A1070130A207003003185A
:100C28000130A307003003180130A407003003186F
:100C38000130A50701300310A50CA40CA30CA20CCD
:100C4800FF3E031D1F2EFF302505031D2C2E2D2EC4
:100C58000C2E392E0130A1020130F6000310A20D2E
:100C6800A30DA40DA50DF60B322EA41B3C2E3D2E74
:100C7800432E023021020318422E432E2E2E211815
:100C8800462E472E4F2EFF30A205FF30A3057F309A
:100C9800A405FF30A5050310A10C2108F600F701F3
:100CA800F801F90118300310F60DF70DF80DF90DDC
:100CB800FF3E031D572E7608A2047708A304780880
:100CC800A4047908A504200803196B2E6C2E712E34
:100CD800F51F6F2E702E712EA5172508F500240814
:100CE800F4002308F3002208F20008000A128A150B
:100CF80016270A128A110A128A150E270A128A1151
:100D08000A128A11A5270A128A110A128A1535278A
:100D18000A128A110A128A154A270A128A110A1215
:100D28008A1525270A128A1183120313E801E9019B
:100D3800C3309F059F149F18A22EA32E9F2E0C131D
:100D48000A128A111E270A128A117A0883120313BB
:100D5800E300E30E17086306CF39630697006A08B5
:100D680095001F08C33904389F009F149F18BD2E93
:100D7800BE2EBA2E0C130A128A111E270A128A11C5
:100D88007A08013983120313E300E30E1D08630692
:100D9800EF3963069D007B08E4007A08E30003103E
:100DA800E40CE30C63080139E500E50EE50D1D08C8
:100DB8006506DF3965069D006A089B001F08C33970
:100DC80008389F009F149F18EA2EEB2EE72E0C136D
:100DD800831603131E0883120313E300063003105F
:100DE800E30CFF3E031DF32E1E08E400E50103108B
:100DF800E40DE50D0310E40DE50D63086407E60056
:100E08000030031801306507E700660883160313EE
:100E1800A00083120313670883160313A100283068
:100E280083120313E300E30B172F1A2F982E0A12CD
:100E38008A110C28831603131E0883120313DE007D
:100E480006300310DE0CFF3E031D252F1E08DF00B1
:100E5800E0010310DF0DE00D0310DF0DE00D5E086B
:100E68005F07E1000030031801306007E200610805
:100E7800EE006208EF006E08F2006F08F300F4015C
:100E8800F50100300A128A11C0250A128A11750864
:100E980083120313AD007408AC007308AB0072082A
:100EA800AA003D30A9008230A8000C30A7004A30C3
:100EB800A6000A128A1123200A128A118312031328
:100EC8002908C7002808C6002708C5002608C40046
:100ED8004130C300F830C2000030C1000030C0000B
:100EE8000A128A1168230A128A118312031343080B
:100EF800D7004208D6004108D5004008D4000A129D
:100F08008A1588270A128A11831203135508ED00DF
:100F18005408EC0003306C05FA0000306D05FB0046
:100F28006D08DF006C08DE000310DF0CDE0C031018
:100F3800DF0CDE0CFF305E05EA0000305F05EB00D9
:100F48000800831203130510831603130514831670
:100F580003170814831203138510831603138514CB
:100F680083160317881483120313051183160313BA
:100F78000515831603170815831203139F131F17EC
:100F8800831603139F121F129F13831203131F1438
:100F98000330F200F20BCE2FD12F08000B1DD52FF6
:100FA800D62FF82F013083120313E8070318E90A34
:100FB8000030E9076908831603132102031DEA2F8D
:100FC800831203136808831603132002031CED2FF2
:100FD800EE2FF22F831203138715F52F83120313B5
:100FE8008711FE3081000B1171088A00700E830092
:060FF800FE0E7E0E090052
:101E1C00831603130F088F3930388F000F14080006
:101E2C008316031789018316031386018701880122
:101E3C0083120313870101308600880108008B1779
:101E4C008B160B1183160313811281110108F839BB
:101E5C0003388100FA3083120313810008008316C3
:101E6C00031307159B3092000C3083120313970059
:101E7C008C100330920412158C1C452F462F422FC8
:101E8C0083160313071108008316031387149B3062
:101E9C0092000C30831203139D008C1003309204BB
:101EAC0012158C1C5A2F5B2F572F83160313871078
:101EBC00080083120313A400A001A1017208F4000E
:101ECC00F5017408A2007508A300241C6E2F6F2F57
:101EDC00752F2208A0070318A10A2308A1070130B7
:101EEC000310A20DA30DFF3E031D762F0310A40CAF
:101EFC002408031D822F832F6B2F2108F300200849
:101F0C00F2000800031083120313560D570DDD0069
:101F1C005D08031D922F932F9C2F0030D7000030AB
:101F2C00D6000030D5000030D400FF2F5408D80064
:101F3C005508D9005608DA005708DB001F3003108B
:101F4C00DB0CDA0CD90CD80CFF3E031DA52F58085E
:101F5C00DC00D617FF30D405FF30D505FF30D60591
:101F6C000030D7059630DD02DD1FBD2FBE2FD82FD8
:101F7C005D08803A973E0318C42FC52FC62F932FA8
:101F8C0001300310D70CD60CD50CD40CFF3E031D1E
:101F9C00C72F0130D8005808DD07031DD62FD72FC7
:101FAC00C62FEF2F20305D02031CDD2FDE2FEA2F12
:101FBC00932F0130D8000310D40DD50DD60DD70DAD
:101FCC00D80BE12F0130DD025D08031DEE2FEF2F42
:101FDC00DF2F5C080319F32FF42FFF2FD409D50939
:101FEC00D609D709D40A0319D50A0319D60A031935
:041FFC00D70A0800F8
:08400000FF3FFF3FFF3FFF3FC0
:04400E00D420FF3F7C
:00000001FF
